:020000040800F2
:100000009006002089010008990300089301000868
:100010009501000897010008990100080000000000
:100020000000000000000000000000009B0100082C
:100030009D010008000000009F010008A1010008C8
:10004000A3010008A3010008A3010008A301000800
:10005000A3010008A3010008A3010008A3010008F0
:10006000A3010008A3010008A3010008A3010008E0
:10007000A3010008A3010008A3010008A3010008D0
:10008000A3010008A3010008A3010008A3010008C0
:10009000A3010008A3010008A3010008A3010008B0
:1000A000A3010008A3010008A3010008A3010008A0
:1000B000A3010008A301000800000000A30100083C
:1000C000A30100080000000000000000A3010008D8
:1000D00000000000A3010008A301000800000000C8
:1000E000A3010008A3010008A301000800F002F822
:1000F00000F03AF80AA090E8000C82448344AAF188
:100100000107DA4501D100F02FF8AFF2090EBAE885
:100110000F0013F0010F18BFFB1A43F0010318473B
:100120005008000070080000103A24BF78C878C159
:10013000FAD8520724BF30C830C144BF04680C60ED
:10014000704700000023002400250026103A28BF35
:1001500078C1FBD8520728BF30C148BF0B60704739
:100160001FB51FBD10B510BD00F031F81146FFF7E7
:10017000F7FF00F091FB00F04FF803B4FFF7F2FF38
:1001800003BC00F057F800000948804709480047C1
:10019000FEE7FEE7FEE7FEE7FEE7FEE7FEE7FEE737
:1001A000FEE7FEE704480549054A064B7047000094
:1001B00039080008ED00000890000020900600209B
:1001C00090020020900200207047704770477546EB
:1001D00000F02CF8AE4605006946534620F00700B3
:1001E000854618B020B5FFF7DDFFBDE820404FF091
:1001F00000064FF000074FF000084FF0000B21F011
:100200000701AC46ACE8C009ACE8C009ACE8C009DD
:10021000ACE8C0098D46704710B50446AFF30080C6
:100220002046BDE81040FFF7A8BF00000048704717
:100230002C00002001491820ABBEFEE7260002007A
:10024000704701B5002007E0B0F57A7F03D10020A8
:100250000099491E0091401C00990029F4D108BD65
:100260002DE9F0410246002500260020002300244D
:10027000002791F803C00CF00F0591F803C00CF0B3
:10028000100CBCF1000F03D091F802C04CEA050538
:1002900091F800C0BCF1000F31D0146800202BE0B1
:1002A0004FF0010C0CFA00F3B1F800C00CEA0306A1
:1002B0009E4220D183004FF00F0C0CFA03F7BC4391
:1002C00005FA03FC4CEA040491F803C0BCF1280FC2
:1002D00006D14FF0010C0CFA00FCC2F814C00AE081
:1002E00091F803C0BCF1480F05D14FF0010C0CFA96
:1002F00000FCC2F810C0401C0828D1D31460B1F82B
:1003000000C0BCF1FF0F34DD546800202EE000F186
:10031000080C4FF0010808FA0CF3B1F800C00CEA21
:1003200003069E4221D183004FF00F0C0CFA03F715
:10033000BC4305FA03FC4CEA040491F803C0BCF189
:10034000280F05D100F1080C08FA0CF8C2F8148047
:1003500091F803C0BCF1480F07D100F1080C4FF031
:10036000010808FA0CF8C2F81080401C0828CED307
:100370005460BDE8F0810246002093680B400BB149
:10038000012000E000207047416170470AB101611F
:1003900000E041617047000010B51148806840F4EA
:1003A00000000F4988606420FFF74BFF4FF4803056
:1003B00000F010F90120FFF744FF00F06FF9012869
:1003C00008D100F05FF9002000F02AF91420054957
:1003D000086004E04FF480710348FFF7D5FF10BDBB
:1003E0000010024000000020000C014008B501216F
:1003F000082000F01DF80F20ADF8000014208DF843
:10040000030002208DF8020069460848FFF728FF24
:100410001020ADF8000048208DF8030002208DF870
:10042000020069460148FFF71BFF08BD000C0140B0
:1004300029B1064A92690243044B9A6104E0034AD7
:1004400092698243014B9A6170470000001002409C
:100450000F48006840F001000D49086008464068F8
:100460000C4908400A494860084600680A490840A3
:10047000074908600846006820F4802008600846A4
:10048000406820F4FE0048604FF41F008860704709
:10049000001002400000FFF8FFFFF6FE30B500211B
:1004A0000022002400232D4D6D6805F00C0121B1C0
:1004B000042905D0082923D105E0294D056022E053
:1004C000274D05601FE0254D6D6805F47012234D22
:1004D0006D6805F48034022505EB92421CB9214D6C
:1004E000554305600BE01D4D6D6805F400351DB1E9
:1004F0001C4D5543056002E0194D5543056002E06F
:10050000174D056000BF00BF144D6D6805F0F00188
:100510000909154D6B5C0568DD4045600F4D6D6840
:1005200005F4E061090A104D6B5C4568DD408560AB
:100530000A4D6D6805F46051C90A0B4D6B5C456846
:10054000DD40C560054D6D6805F44041890B074DE0
:100550006B5CC568B5FBF3F5056130BD001002406A
:1005600000127A0000093D00040000201400002061
:1005700010B501460022002300204A11012A02D1B1
:10058000094C236806E0022A02D1074C236A01E0E5
:10059000054C636A01F01F02012494401C400CB119
:1005A000012000E0002010BD001002400248406819
:1005B00000F00C00704700000010024001460020CF
:1005C000034A506820F0F000084350607047000074
:1005D000001002401149096821F480310F4A11606E
:1005E0001146096821F480211160B0F5803F03D0E5
:1005F000B0F5802F0ED106E00849096841F480313A
:10060000064A116007E00549096841F4A021034A40
:10061000116000E000BF00BF704700000010024002
:100620000149086070470000000042420146002076
:10063000034A506820F4E0600843506070470000AF
:100640000010024001460020034A506820F4605028
:1006500040EAC1005060704700100240014908663E
:10066000704700000000424202460020044B5868D8
:1006700020F47C1042EA01031843014B5860704794
:100680000010024001460020034A506820F0030099
:1006900008435060704700000010024038B5002049
:1006A00000900024002500BF3120FFF761FF0546C0
:1006B0000098401C00900098B0F5A06F01D0002D6C
:1006C000F2D03120FFF754FF08B1012400E00024EC
:1006D000204638BD10B50446FFF7BAFE4FF480300F
:1006E000FFF778FF00BFFFF7D9FF0128FBD11648BD
:1006F000006840F40020144908600020FFF790FFD4
:1007000021464FF44030FFF7AFFF0120FFF7A6FF6F
:1007100000BF3920FFF72CFF0028FAD00220FFF796
:10072000B1FF00BFFFF742FF0828FBD10020FFF711
:1007300045FF0020FFF786FF0020FFF777FF034803
:10074000FFF7ACFE10BD00000010024018000020B2
:1007500010B500F001F810BD0CB50020019000901C
:100760003348006840F480303149086000BF3048A9
:10077000006800F4003000900198401C019000983F
:1007800018B90198B0F5A06FF1D12948006800F4BC
:10079000003010B10120009001E00020009000988E
:1007A000012843D12348006840F010002149086027
:1007B0000846006820F0030008600846006840F022
:1007C000020008601A4840681949486008464068B5
:1007D00048600846406840F48060486008464068C9
:1007E00020F47C1048600846406840F4E8104860F7
:1007F0000846006840F08070086000BF0C48006840
:1008000000F000700028F9D00948406820F003008B
:10081000074948600846406840F00200486000BF51
:100820000348406800F00C000828F9D10CBD000016
:10083000001002400020024010B51348006840F04C
:1008400001001149086008464068104908400E49F7
:100850004860084600680E4908400B490860084691
:10086000006820F4802008600846406820F4FE00FC
:1008700048604FF41F008860FFF76AFF4FF0006088
:100880000449086010BD0000001002400000FFF89D
:10089000FFFFF6FE08ED00E00220FFF71BFFFFF769
:1008A000A5FD61E010213148FFF765FD00285BD10F
:1008B000012211462D48FFF769FD002202212B4835
:1008C000FFF764FD002204212848FFF75FFD0022A6
:1008D00008212648FFF75AFD0A20FFF7B2FC002244
:1008E00001212248FFF752FD012202211F48FFF794
:1008F0004DFD002204211D48FFF748FD002208217C
:100900001A48FFF743FD0A20FFF79BFC0022012154
:100910001648FFF73BFD002202211448FFF736FD81
:10092000012204211148FFF731FD002208210F4860
:10093000FFF72CFD0A20FFF784FC002201210B4861
:10094000FFF724FD002202210848FFF71FFD0022C7
:1009500004210648FFF71AFD012208210348FFF78A
:1009600015FD0A20FFF76DFC9CE70000000C01401C
:10097000900900080000002018000000280100086D
:10098000A8090008180000207806000044010008AB
:10099000F40100000000000001020304010203044E
:0809A00006070809020406081D
:04000005080000ED02
:00000001FF
